:100000000C942A000C9447000C9447000C94470071
:100010000C940C010C9433010C9447000C94700068
:100020000C9447000C9497000C94BE000C94E500CF
:100030000C9447000C9447000C9447000C94470024
:100040000C9447000C9447000C9447000C94470014
:100050000C94470011241FBECFE5D8E0DEBFCDBF12
:1000600010E0A0E6B0E0EAE4F5E002C005900D92F1
:10007000AA36B107D9F720E0AAE6B0E001C01D9288
:10008000A137B207E1F70E9449000C94A3020C9437
:100090000000CF93DF93CDB7DEB729970FB6F89462
:1000A000DEBF0FBECDBF89E0E0E6F0E0DE011196D5
:1000B00001900D928A95E1F7CE0101960E945A01B6
:1000C000BE016F5F7F4F85E40E943202CE01019630
:1000D0000E944F02BE016F5F7F4F0E943202F6CF37
:1000E0001F920F920FB60F9211242F933F934F93AD
:1000F0005F936F937F938F939F93AF93BF93EF9390
:10010000FF93E0916C00F0916D000995FF91EF91E4
:10011000BF91AF919F918F917F916F915F914F911F
:100120003F912F910F900FBE0F901F9018951F9227
:100130000F920FB60F9211242F933F934F935F931B
:100140006F937F938F939F93AF93BF93EF93FF939F
:10015000E0916C00F0916D000995FF91EF91BF91D6
:10016000AF919F918F917F916F915F914F913F914F
:100170002F910F900FBE0F901F9018951F920F9206
:100180000FB60F9211242F933F934F935F936F936A
:100190007F938F939F93AF93BF93EF93FF93E091E0
:1001A0006E00F0916F000995FF91EF91BF91AF91B3
:1001B0009F918F917F916F915F914F913F912F917F
:1001C0000F900FBE0F901F9018951F920F920FB6B1
:1001D0000F9211242F933F934F935F936F937F93CD
:1001E0008F939F93AF93BF93EF93FF93E0916E0034
:1001F000F0916F000995FF91EF91BF91AF919F91A1
:100200008F917F916F915F914F913F912F910F90BF
:100210000FBE0F901F9018951F920F920FB60F925E
:1002200011242F933F934F935F936F937F938F93FB
:100230009F93AF93BF93EF93FF93E0916A00F09188
:100240006B000995FF91EF91BF91AF919F918F91B5
:100250007F916F915F914F913F912F910F900FBEC2
:100260000F901F9018951F920F920FB60F921124A6
:100270002F933F934F935F936F937F938F939F93AE
:10028000AF93BF93EF93FF93E0916A00F0916B00FF
:100290000995FF91EF91BF91AF919F918F917F91C0
:1002A0006F915F914F913F912F910F900FBE0F90E3
:1002B0001F901895FC018481803161F48093700057
:1002C00080B5806880BD80B58F7B80BD8BB18D7F10
:1002D0008BB91BC0883061F48093700080B5806852
:1002E00080BD80B58F7B80BD8BB182608BB90DC026
:1002F000823059F48093700080B5806880BD80B5ED
:10030000806480BD80B5816080BD81E080878AB1D6
:1003100080688AB98AB180648AB98AB180628AB9F0
:100320008AB180618AB98AB188608AB980B58068EB
:1003300080BD8681813069F028F0823089F0833079
:10034000B1F01BC080B58F7E80BD80B58F7D80BD34
:1003500014C080B5806180BD80B58F7D80BD0DC02B
:1003600080B58F7E80BD80B5806280BD06C080B5BF
:10037000806180BD80B5806280BD8581811107C0AC
:1003800080B5806880BD80B5877F80BD08C0813022
:1003900031F480B5806880BD80B5886080BD80B54F
:1003A000806880BD87818230F9F028F4882341F08D
:1003B000813081F036C0833009F1873049F131C096
:1003C00080B58E7F80BD80B58D7F80BD8AB18B7FEB
:1003D0008AB927C080B5816080BD80B58D7F80BD22
:1003E0008AB18B7F8AB91DC080B58E7F80BD80B5F4
:1003F000826080BD8AB18B7F8AB913C080B581606D
:1004000080BD80B5826080BD8AB18B7F8AB909C00A
:1004100080B5816080BD80B5826080BD8AB1846016
:100420008AB92081318142815381A0917000B0E06E
:100430000E9489029B01AC0160E072E18AE790E0D2
:100440000E946702BA01A90141505109610971096D
:1004500080B58F7780BDBB27A72F962F852F80BDB6
:1004600049B90895FB019781933031F0992321F028
:10047000913011F0923039F45D9BFECF8CB98BB185
:1004800080648BB90895973049F45D9BFECF9AB193
:100490009E7F9AB99AB191609AB98CB90895FC017E
:1004A0008781833031F0882321F0813011F0823050
:1004B00021F45F9BFECF8CB10895873039F45F9BA8
:1004C000FECF8BB18AB18CB18FEF08950895A1E270
:1004D0001A2EAA1BBB1BFD010DC0AA1FBB1FEE1FBE
:1004E000FF1FA217B307E407F50720F0A21BB30B09
:1004F000E40BF50B661F771F881F991F1A9469F785
:1005000060957095809590959B01AC01BD01CF01E0
:1005100008950E949402A59F900DB49F900DA49FF2
:10052000800D911D11240895A29FB001B39FC001B9
:10053000A39F700D811D1124911DB29F700D811D0F
:0A0540001124911D0895F894FFCFD7
:0A054A0080250000100102030000EC
:00000001FF
