S0130000554152545F6472697665722E73726563EA
S11300000C942A000C9447000C9447000C9447006D
S11300100C940C010C9433010C9447000C94700064
S11300200C9447000C9497000C94BE000C94E500CB
S11300300C9447000C9447000C9447000C94470020
S11300400C9447000C9447000C9447000C94470010
S11300500C94470011241FBECFE5D8E0DEBFCDBF0E
S113006010E0A0E6B0E0EEE0F5E002C005900D92ED
S1130070A836B107D9F720E0A8E6B0E001C01D9288
S1130080AF36B207E1F70E9449000C9485020C9444
S11300900000CF93DF93CDB7DEB727970FB6F89460
S11300A0DEBF0FBECDBF87E0E0E6F0E0DE011196D3
S11300B001900D928A95E1F7CE0101960E945A01B2
S11300C0BE016F5F7F4F81E40E942B02CE01019637
S11300D00E944802BE016F5F7F4F0E942B02F6CF41
S11300E01F920F920FB60F9211242F933F934F93A9
S11300F05F936F937F938F939F93AF93BF93EF938C
S1130100FF93E0916A00F0916B000995FF91EF91E4
S1130110BF91AF919F918F917F916F915F914F911B
S11301203F912F910F900FBE0F901F9018951F9223
S11301300F920FB60F9211242F933F934F935F9317
S11301406F937F938F939F93AF93BF93EF93FF939B
S1130150E0916A00F0916B000995FF91EF91BF91D6
S1130160AF919F918F917F916F915F914F913F914B
S11301702F910F900FBE0F901F9018951F920F9202
S11301800FB60F9211242F933F934F935F936F9366
S11301907F938F939F93AF93BF93EF93FF93E091DC
S11301A06C00F0916D000995FF91EF91BF91AF91B3
S11301B09F918F917F916F915F914F913F912F917B
S11301C00F900FBE0F901F9018951F920F920FB6AD
S11301D00F9211242F933F934F935F936F937F93C9
S11301E08F939F93AF93BF93EF93FF93E0916C0032
S11301F0F0916D000995FF91EF91BF91AF919F919F
S11302008F917F916F915F914F913F912F910F90BB
S11302100FBE0F901F9018951F920F920FB60F925A
S113022011242F933F934F935F936F937F938F93F7
S11302309F93AF93BF93EF93FF93E0916800F09186
S113024069000995FF91EF91BF91AF919F918F91B3
S11302507F916F915F914F913F912F910F900FBEBE
S11302600F901F9018951F920F920FB60F921124A2
S11302702F933F934F935F936F937F938F939F93AA
S1130280AF93BF93EF93FF93E0916800F0916900FF
S11302900995FF91EF91BF91AF919F918F917F91BC
S11302A06F915F914F913F912F910F900FBE0F90DF
S11302B01F901895FC018281803161F480936E0057
S11302C080B5806880BD80B58F7B80BD8BB18D7F0C
S11302D08BB91BC0883061F480936E0080B5806850
S11302E080BD80B58F7B80BD8BB182608BB90DC022
S11302F0823059F480936E0080B5806880BD80B5EB
S1130300806480BD80B5816080BD8681813049F480
S11303108AB180688AB98AB180648AB98AB18062F4
S11303208AB98AB180618AB98AB188608AB980B58C
S1130330806880BD8481813069F028F0823089F042
S11303408330B1F01BC080B58F7E80BD80B58F7DBA
S113035080BD14C080B5806180BD80B58F7D80BDB7
S11303600DC080B58F7E80BD80B5806280BD06C023
S113037080B5806180BD80B5806280BD838181113C
S113038007C080B5806880BD80B5877F80BD08C008
S1130390813031F480B5806880BD80B5886080BDCF
S11303A080B5806880BD85818230F9F028F4882387
S11303B041F0813081F036C0833009F1873049F152
S11303C031C080B58E7F80BD80B58D7F80BD8AB100
S11303D08B7F8AB927C080B5816080BD80B58D7F51
S11303E080BD8AB18B7F8AB91DC080B58E7F80BDE8
S11303F080B5826080BD8AB18B7F8AB913C080B515
S1130400816080BD80B5826080BD8AB18B7F8AB9EE
S113041009C080B5816080BD80B5826080BD8AB12D
S113042084608AB98081918140916E00489F9001D7
S1130430499F300D112440E050E060E072E18AE70A
S113044090E00E9463022150310980B58F7780BD0E
S113045029B930BD0895FB019581933031F099237A
S113046021F0913011F0923039F45D9BFECF8CB9BC
S11304708BB180648BB90895973049F45D9BFECFAE
S11304809AB19E7F9AB99AB191609AB98CB908953C
S1130490FC018581833031F0882321F0813011F013
S11304A0823021F45F9BFECF8CB10895873041F4F4
S11304B05F9BFECF9BB18AB18CB19C7111F40895FE
S11304C008958FEF0895A1E21A2EAA1BBB1BFD010C
S11304D00DC0AA1FBB1FEE1FFF1FA217B307E4071F
S11304E0F50720F0A21BB30BE40BF50B661F771F77
S11304F0881F991F1A9469F7609570958095909557
S11105009B01AC01BD01CF010895F894FFCF1B
S10B050E600910000003000065
S9030000FC
